{
  "contractName": "ContactInvite",
  "abi": [
    {
      "constant": true,
      "inputs": [],
      "name": "creationBlock",
      "outputs": [
        {
          "name": "",
          "type": "uint256"
        }
      ],
      "payable": false,
      "stateMutability": "view",
      "type": "function"
    },
    {
      "constant": true,
      "inputs": [],
      "name": "requiredStake",
      "outputs": [
        {
          "name": "",
          "type": "uint256"
        }
      ],
      "payable": false,
      "stateMutability": "view",
      "type": "function"
    },
    {
      "constant": false,
      "inputs": [],
      "name": "unpause",
      "outputs": [],
      "payable": false,
      "stateMutability": "nonpayable",
      "type": "function"
    },
    {
      "constant": true,
      "inputs": [
        {
          "name": "account",
          "type": "address"
        }
      ],
      "name": "isPauser",
      "outputs": [
        {
          "name": "",
          "type": "bool"
        }
      ],
      "payable": false,
      "stateMutability": "view",
      "type": "function"
    },
    {
      "constant": true,
      "inputs": [],
      "name": "paused",
      "outputs": [
        {
          "name": "",
          "type": "bool"
        }
      ],
      "payable": false,
      "stateMutability": "view",
      "type": "function"
    },
    {
      "constant": false,
      "inputs": [],
      "name": "renouncePauser",
      "outputs": [],
      "payable": false,
      "stateMutability": "nonpayable",
      "type": "function"
    },
    {
      "constant": false,
      "inputs": [],
      "name": "renounceOwnership",
      "outputs": [],
      "payable": false,
      "stateMutability": "nonpayable",
      "type": "function"
    },
    {
      "constant": false,
      "inputs": [
        {
          "name": "account",
          "type": "address"
        }
      ],
      "name": "addPauser",
      "outputs": [],
      "payable": false,
      "stateMutability": "nonpayable",
      "type": "function"
    },
    {
      "constant": false,
      "inputs": [],
      "name": "pause",
      "outputs": [],
      "payable": false,
      "stateMutability": "nonpayable",
      "type": "function"
    },
    {
      "constant": true,
      "inputs": [],
      "name": "owner",
      "outputs": [
        {
          "name": "",
          "type": "address"
        }
      ],
      "payable": false,
      "stateMutability": "view",
      "type": "function"
    },
    {
      "constant": true,
      "inputs": [],
      "name": "isOwner",
      "outputs": [
        {
          "name": "",
          "type": "bool"
        }
      ],
      "payable": false,
      "stateMutability": "view",
      "type": "function"
    },
    {
      "constant": true,
      "inputs": [
        {
          "name": "",
          "type": "address"
        },
        {
          "name": "",
          "type": "bytes32"
        }
      ],
      "name": "inviteRequests",
      "outputs": [
        {
          "name": "stake",
          "type": "uint256"
        },
        {
          "name": "block",
          "type": "uint256"
        },
        {
          "name": "state",
          "type": "uint8"
        }
      ],
      "payable": false,
      "stateMutability": "view",
      "type": "function"
    },
    {
      "constant": false,
      "inputs": [
        {
          "name": "newOwner",
          "type": "address"
        }
      ],
      "name": "transferOwnership",
      "outputs": [],
      "payable": false,
      "stateMutability": "nonpayable",
      "type": "function"
    },
    {
      "constant": true,
      "inputs": [],
      "name": "token",
      "outputs": [
        {
          "name": "",
          "type": "address"
        }
      ],
      "payable": false,
      "stateMutability": "view",
      "type": "function"
    },
    {
      "inputs": [
        {
          "name": "_tokenAddress",
          "type": "address"
        }
      ],
      "payable": false,
      "stateMutability": "nonpayable",
      "type": "constructor"
    },
    {
      "anonymous": false,
      "inputs": [
        {
          "indexed": true,
          "name": "recipientAddress",
          "type": "address"
        },
        {
          "indexed": true,
          "name": "recipientFeed",
          "type": "string"
        },
        {
          "indexed": false,
          "name": "senderFeed",
          "type": "string"
        },
        {
          "indexed": false,
          "name": "senderAddress",
          "type": "address"
        }
      ],
      "name": "Invited",
      "type": "event"
    },
    {
      "anonymous": false,
      "inputs": [
        {
          "indexed": true,
          "name": "senderFeed",
          "type": "string"
        },
        {
          "indexed": true,
          "name": "senderAddress",
          "type": "address"
        },
        {
          "indexed": false,
          "name": "recipientFeed",
          "type": "string"
        }
      ],
      "name": "Declined",
      "type": "event"
    },
    {
      "anonymous": false,
      "inputs": [
        {
          "indexed": true,
          "name": "sender",
          "type": "address"
        },
        {
          "indexed": false,
          "name": "recipient",
          "type": "address"
        }
      ],
      "name": "StakeRetrieved",
      "type": "event"
    },
    {
      "anonymous": false,
      "inputs": [
        {
          "indexed": true,
          "name": "senderAddress",
          "type": "address"
        },
        {
          "indexed": false,
          "name": "recipientFeed",
          "type": "string"
        }
      ],
      "name": "StakeRefunded",
      "type": "event"
    },
    {
      "anonymous": false,
      "inputs": [
        {
          "indexed": false,
          "name": "account",
          "type": "address"
        }
      ],
      "name": "Paused",
      "type": "event"
    },
    {
      "anonymous": false,
      "inputs": [
        {
          "indexed": false,
          "name": "account",
          "type": "address"
        }
      ],
      "name": "Unpaused",
      "type": "event"
    },
    {
      "anonymous": false,
      "inputs": [
        {
          "indexed": true,
          "name": "account",
          "type": "address"
        }
      ],
      "name": "PauserAdded",
      "type": "event"
    },
    {
      "anonymous": false,
      "inputs": [
        {
          "indexed": true,
          "name": "account",
          "type": "address"
        }
      ],
      "name": "PauserRemoved",
      "type": "event"
    },
    {
      "anonymous": false,
      "inputs": [
        {
          "indexed": true,
          "name": "previousOwner",
          "type": "address"
        },
        {
          "indexed": true,
          "name": "newOwner",
          "type": "address"
        }
      ],
      "name": "OwnershipTransferred",
      "type": "event"
    },
    {
      "constant": true,
      "inputs": [
        {
          "name": "senderAddr",
          "type": "address"
        },
        {
          "name": "recipientAddr",
          "type": "address"
        },
        {
          "name": "recipientFeed",
          "type": "string"
        }
      ],
      "name": "getInviteState",
      "outputs": [
        {
          "name": "",
          "type": "bytes32"
        }
      ],
      "payable": false,
      "stateMutability": "view",
      "type": "function"
    },
    {
      "constant": true,
      "inputs": [
        {
          "name": "senderAddress",
          "type": "address"
        },
        {
          "name": "recipientAddr",
          "type": "address"
        },
        {
          "name": "recipientFeed",
          "type": "string"
        }
      ],
      "name": "pendingInviteStake",
      "outputs": [
        {
          "name": "",
          "type": "uint256"
        }
      ],
      "payable": false,
      "stateMutability": "view",
      "type": "function"
    },
    {
      "constant": false,
      "inputs": [
        {
          "name": "recipientAddr",
          "type": "address"
        },
        {
          "name": "recipientFeed",
          "type": "string"
        },
        {
          "name": "senderFeed",
          "type": "string"
        }
      ],
      "name": "sendInvite",
      "outputs": [],
      "payable": false,
      "stateMutability": "nonpayable",
      "type": "function"
    },
    {
      "constant": false,
      "inputs": [
        {
          "name": "senderAddress",
          "type": "address"
        },
        {
          "name": "senderFeed",
          "type": "string"
        },
        {
          "name": "recipientFeed",
          "type": "string"
        }
      ],
      "name": "declineAndWithdraw",
      "outputs": [],
      "payable": false,
      "stateMutability": "nonpayable",
      "type": "function"
    },
    {
      "constant": false,
      "inputs": [
        {
          "name": "recipientAddr",
          "type": "address"
        },
        {
          "name": "recipientFeed",
          "type": "string"
        },
        {
          "name": "v",
          "type": "uint8"
        },
        {
          "name": "r",
          "type": "bytes32"
        },
        {
          "name": "s",
          "type": "bytes32"
        }
      ],
      "name": "retrieveStake",
      "outputs": [],
      "payable": false,
      "stateMutability": "nonpayable",
      "type": "function"
    },
    {
      "constant": false,
      "inputs": [
        {
          "name": "senderAddress",
          "type": "address"
        },
        {
          "name": "recipientAddress",
          "type": "address"
        },
        {
          "name": "recipientFeed",
          "type": "string"
        }
      ],
      "name": "adminRefund",
      "outputs": [],
      "payable": false,
      "stateMutability": "nonpayable",
      "type": "function"
    }
  ],
  "bytecode": "0x60806040523480156200001157600080fd5b5060405160208062002bad833981018060405260208110156200003357600080fd5b8101908080519060200190929190505050336000806101000a81548173ffffffffffffffffffffffffffffffffffffffff021916908373ffffffffffffffffffffffffffffffffffffffff1602179055506000809054906101000a900473ffffffffffffffffffffffffffffffffffffffff1673ffffffffffffffffffffffffffffffffffffffff16600073ffffffffffffffffffffffffffffffffffffffff167f8be0079c531659141344cd1fd0a4f28419497f9722a3daafe3b4186f6b6457e060405160405180910390a36200011a3362000193640100000000026401000000009004565b6000600260006101000a81548160ff02191690831515021790555080600260016101000a81548173ffffffffffffffffffffffffffffffffffffffff021916908373ffffffffffffffffffffffffffffffffffffffff160217905550678ac7230489e80000600381905550436004819055505062000355565b620001b7816001620001fd64010000000002620026d3179091906401000000009004565b8073ffffffffffffffffffffffffffffffffffffffff167f6719d08c1888103bea251a4ed56406bd0c3e69723c8a1686e017e7bbe159b6f860405160405180910390a250565b600073ffffffffffffffffffffffffffffffffffffffff168173ffffffffffffffffffffffffffffffffffffffff16141515156200023a57600080fd5b620002558282620002c0640100000000026401000000009004565b1515156200026257600080fd5b60018260000160008373ffffffffffffffffffffffffffffffffffffffff1673ffffffffffffffffffffffffffffffffffffffff16815260200190815260200160002060006101000a81548160ff0219169083151502179055505050565b60008073ffffffffffffffffffffffffffffffffffffffff168273ffffffffffffffffffffffffffffffffffffffff1614151515620002fe57600080fd5b8260000160008373ffffffffffffffffffffffffffffffffffffffff1673ffffffffffffffffffffffffffffffffffffffff16815260200190815260200160002060009054906101000a900460ff16905092915050565b61284880620003656000396000f3fe608060405234801561001057600080fd5b5060043610610149576000357c01000000000000000000000000000000000000000000000000000000009004806382dc1ec4116100ca578063b3f7c4031161008e578063b3f7c40314610656578063b9f7ecc414610710578063ca47d389146107c9578063f2fde38b14610847578063fc0c546a1461088b57610149565b806382dc1ec4146104ae5780638456cb59146104f25780638da5cb5b146104fc5780638f32d59b14610546578063938cea941461056857610149565b80634eb6c656116101115780634eb6c656146102de5780635c975abb146103ab5780636ef8d66d146103cd578063715018a6146103d757806377b74c43146103e157610149565b8063176345141461014e57806319cb355d1461016c5780633f4ba83a1461018a57806346fbf68e14610194578063479669ee146101f0575b600080fd5b6101566108d5565b6040518082815260200191505060405180910390f35b6101746108db565b6040518082815260200191505060405180910390f35b6101926108e1565b005b6101d6600480360360208110156101aa57600080fd5b81019080803573ffffffffffffffffffffffffffffffffffffffff169060200190929190505050610990565b604051808215151515815260200191505060405180910390f35b6102dc6004803603606081101561020657600080fd5b81019080803573ffffffffffffffffffffffffffffffffffffffff1690602001909291908035906020019064010000000081111561024357600080fd5b82018360208201111561025557600080fd5b8035906020019184600183028401116401000000008311171561027757600080fd5b90919293919293908035906020019064010000000081111561029857600080fd5b8201836020820111156102aa57600080fd5b803590602001918460018302840111640100000000831117156102cc57600080fd5b90919293919293905050506109ad565b005b610395600480360360608110156102f457600080fd5b81019080803573ffffffffffffffffffffffffffffffffffffffff169060200190929190803573ffffffffffffffffffffffffffffffffffffffff1690602001909291908035906020019064010000000081111561035157600080fd5b82018360208201111561036357600080fd5b8035906020019184600183028401116401000000008311171561038557600080fd5b9091929391929390505050610db2565b6040518082815260200191505060405180910390f35b6103b3610e89565b604051808215151515815260200191505060405180910390f35b6103d5610ea0565b005b6103df610eab565b005b610498600480360360608110156103f757600080fd5b81019080803573ffffffffffffffffffffffffffffffffffffffff169060200190929190803573ffffffffffffffffffffffffffffffffffffffff1690602001909291908035906020019064010000000081111561045457600080fd5b82018360208201111561046657600080fd5b8035906020019184600183028401116401000000008311171561048857600080fd5b9091929391929390505050610f7d565b6040518082815260200191505060405180910390f35b6104f0600480360360208110156104c457600080fd5b81019080803573ffffffffffffffffffffffffffffffffffffffff169060200190929190505050611162565b005b6104fa611182565b005b610504611232565b604051808273ffffffffffffffffffffffffffffffffffffffff1673ffffffffffffffffffffffffffffffffffffffff16815260200191505060405180910390f35b61054e61125b565b604051808215151515815260200191505060405180910390f35b6106546004803603606081101561057e57600080fd5b81019080803573ffffffffffffffffffffffffffffffffffffffff169060200190929190803590602001906401000000008111156105bb57600080fd5b8201836020820111156105cd57600080fd5b803590602001918460018302840111640100000000831117156105ef57600080fd5b90919293919293908035906020019064010000000081111561061057600080fd5b82018360208201111561062257600080fd5b8035906020019184600183028401116401000000008311171561064457600080fd5b90919293919293905050506112b2565b005b61070e600480360360a081101561066c57600080fd5b81019080803573ffffffffffffffffffffffffffffffffffffffff169060200190929190803590602001906401000000008111156106a957600080fd5b8201836020820111156106bb57600080fd5b803590602001918460018302840111640100000000831117156106dd57600080fd5b9091929391929390803560ff16906020019092919080359060200190929190803590602001909291905050506119b8565b005b6107c76004803603606081101561072657600080fd5b81019080803573ffffffffffffffffffffffffffffffffffffffff169060200190929190803573ffffffffffffffffffffffffffffffffffffffff1690602001909291908035906020019064010000000081111561078357600080fd5b82018360208201111561079557600080fd5b803590602001918460018302840111640100000000831117156107b757600080fd5b9091929391929390505050611e2f565b005b610815600480360360408110156107df57600080fd5b81019080803573ffffffffffffffffffffffffffffffffffffffff16906020019092919080359060200190929190505050612227565b6040518084815260200183815260200182600381111561083157fe5b60ff168152602001935050505060405180910390f35b6108896004803603602081101561085d57600080fd5b81019080803573ffffffffffffffffffffffffffffffffffffffff16906020019092919050505061226b565b005b61089361228a565b604051808273ffffffffffffffffffffffffffffffffffffffff1673ffffffffffffffffffffffffffffffffffffffff16815260200191505060405180910390f35b60045481565b60035481565b6108ea33610990565b15156108f557600080fd5b600260009054906101000a900460ff16151561091057600080fd5b6000600260006101000a81548160ff0219169083151502179055507f5db9ee0a495bf2e6ff9c91a7834c1ba4fdd244a5e8aa4e537bd38aeae4b073aa33604051808273ffffffffffffffffffffffffffffffffffffffff1673ffffffffffffffffffffffffffffffffffffffff16815260200191505060405180910390a1565b60006109a68260016122b090919063ffffffff16565b9050919050565b6000338383604051602001808473ffffffffffffffffffffffffffffffffffffffff1673ffffffffffffffffffffffffffffffffffffffff166c010000000000000000000000000281526014018383808284378083019250505093505050506040516020818303038152906040528051906020012090506000600560008873ffffffffffffffffffffffffffffffffffffffff1673ffffffffffffffffffffffffffffffffffffffff168152602001908152602001600020600083815260200190815260200160002060000154111515610aef576040517f08c379a00000000000000000000000000000000000000000000000000000000081526004018080602001828103825260148152602001807f4e6f207374616b6520746f20776974686472617700000000000000000000000081525060200191505060405180910390fd5b600260019054906101000a900473ffffffffffffffffffffffffffffffffffffffff1673ffffffffffffffffffffffffffffffffffffffff1663a9059cbb33600560008a73ffffffffffffffffffffffffffffffffffffffff1673ffffffffffffffffffffffffffffffffffffffff1681526020019081526020016000206000858152602001908152602001600020600001546040518363ffffffff167c0100000000000000000000000000000000000000000000000000000000028152600401808373ffffffffffffffffffffffffffffffffffffffff1673ffffffffffffffffffffffffffffffffffffffff16815260200182815260200192505050602060405180830381600087803b158015610c0757600080fd5b505af1158015610c1b573d6000803e3d6000fd5b505050506040513d6020811015610c3157600080fd5b8101908080519060200190929190505050506000600560008873ffffffffffffffffffffffffffffffffffffffff1673ffffffffffffffffffffffffffffffffffffffff1681526020019081526020016000206000838152602001908152602001600020600001819055506003600560008873ffffffffffffffffffffffffffffffffffffffff1673ffffffffffffffffffffffffffffffffffffffff168152602001908152602001600020600083815260200190815260200160002060020160006101000a81548160ff02191690836003811115610d0c57fe5b02179055508573ffffffffffffffffffffffffffffffffffffffff16858560405180838380828437808301925050509250505060405180910390207f36e8947c89184c6ccbe5fd0302db37bba45bfbe018c1882b1e32c4f46941138e858560405180806020018281038252848482818152602001925080828437600081840152601f19601f820116905080830192505050935050505060405180910390a3505050505050565b600080848484604051602001808473ffffffffffffffffffffffffffffffffffffffff1673ffffffffffffffffffffffffffffffffffffffff166c01000000000000000000000000028152601401838380828437808301925050509350505050604051602081830303815290604052805190602001209050600560008773ffffffffffffffffffffffffffffffffffffffff1673ffffffffffffffffffffffffffffffffffffffff168152602001908152602001600020600082815260200190815260200160002060000154915050949350505050565b6000600260009054906101000a900460ff16905090565b610ea933612344565b565b610eb361125b565b1515610ebe57600080fd5b600073ffffffffffffffffffffffffffffffffffffffff166000809054906101000a900473ffffffffffffffffffffffffffffffffffffffff1673ffffffffffffffffffffffffffffffffffffffff167f8be0079c531659141344cd1fd0a4f28419497f9722a3daafe3b4186f6b6457e060405160405180910390a360008060006101000a81548173ffffffffffffffffffffffffffffffffffffffff021916908373ffffffffffffffffffffffffffffffffffffffff160217905550565b600080848484604051602001808473ffffffffffffffffffffffffffffffffffffffff1673ffffffffffffffffffffffffffffffffffffffff166c010000000000000000000000000281526014018383808284378083019250505093505050506040516020818303038152906040528051906020012090506000600560008873ffffffffffffffffffffffffffffffffffffffff1673ffffffffffffffffffffffffffffffffffffffff168152602001908152602001600020600083815260200190815260200160002060020160009054906101000a900460ff1690506001600381111561106757fe5b81600381111561107357fe5b14156110a3577f50454e44494e47000000000000000000000000000000000000000000000000009250505061115a565b6003808111156110af57fe5b8160038111156110bb57fe5b14156110eb577f52454a45435445440000000000000000000000000000000000000000000000009250505061115a565b600260038111156110f857fe5b81600381111561110457fe5b1415611134577f41434345505445440000000000000000000000000000000000000000000000009250505061115a565b7f4e4f4e4500000000000000000000000000000000000000000000000000000000925050505b949350505050565b61116b33610990565b151561117657600080fd5b61117f8161239e565b50565b61118b33610990565b151561119657600080fd5b600260009054906101000a900460ff161515156111b257600080fd5b6001600260006101000a81548160ff0219169083151502179055507f62e78cea01bee320cd4e420270b5ea74000d11b0c9f74754ebdbfc544b05a25833604051808273ffffffffffffffffffffffffffffffffffffffff1673ffffffffffffffffffffffffffffffffffffffff16815260200191505060405180910390a1565b60008060009054906101000a900473ffffffffffffffffffffffffffffffffffffffff16905090565b60008060009054906101000a900473ffffffffffffffffffffffffffffffffffffffff1673ffffffffffffffffffffffffffffffffffffffff163373ffffffffffffffffffffffffffffffffffffffff1614905090565b6000858585604051602001808473ffffffffffffffffffffffffffffffffffffffff1673ffffffffffffffffffffffffffffffffffffffff166c010000000000000000000000000281526014018383808284378083019250505093505050506040516020818303038152906040528051906020012090506000600560003373ffffffffffffffffffffffffffffffffffffffff1673ffffffffffffffffffffffffffffffffffffffff168152602001908152602001600020600083815260200190815260200160002060020160009054906101000a900460ff1690506000600260019054906101000a900473ffffffffffffffffffffffffffffffffffffffff1673ffffffffffffffffffffffffffffffffffffffff1663dd62ed3e33306040518363ffffffff167c0100000000000000000000000000000000000000000000000000000000028152600401808373ffffffffffffffffffffffffffffffffffffffff1673ffffffffffffffffffffffffffffffffffffffff1681526020018273ffffffffffffffffffffffffffffffffffffffff1673ffffffffffffffffffffffffffffffffffffffff1681526020019250505060206040518083038186803b15801561147f57600080fd5b505afa158015611493573d6000803e3d6000fd5b505050506040513d60208110156114a957600080fd5b810190808051906020019092919050505011151561152f576040517f08c379a000000000000000000000000000000000000000000000000000000000815260040180806020018281038252601d8152602001807f496e73756666696369656e742062616c616e636520746f207374616b6500000081525060200191505060405180910390fd5b6001600381111561153c57fe5b81600381111561154857fe5b141515156115a1576040517f08c379a00000000000000000000000000000000000000000000000000000000081526004018080602001828103825260238152602001806127d66023913960400191505060405180910390fd5b6003808111156115ad57fe5b8160038111156115b957fe5b14151515611612576040517f08c379a00000000000000000000000000000000000000000000000000000000081526004018080602001828103825260258152602001806127b16025913960400191505060405180910390fd5b6002600381111561161f57fe5b81600381111561162b57fe5b14151515611684576040517f08c379a000000000000000000000000000000000000000000000000000000000815260040180806020018281038252602d815260200180612784602d913960400191505060405180910390fd5b600260019054906101000a900473ffffffffffffffffffffffffffffffffffffffff1673ffffffffffffffffffffffffffffffffffffffff166323b872dd33306003546040518463ffffffff167c0100000000000000000000000000000000000000000000000000000000028152600401808473ffffffffffffffffffffffffffffffffffffffff1673ffffffffffffffffffffffffffffffffffffffff1681526020018373ffffffffffffffffffffffffffffffffffffffff1673ffffffffffffffffffffffffffffffffffffffff1681526020018281526020019350505050602060405180830381600087803b15801561177f57600080fd5b505af1158015611793573d6000803e3d6000fd5b505050506040513d60208110156117a957600080fd5b810190808051906020019092919050505050600354600560003373ffffffffffffffffffffffffffffffffffffffff1673ffffffffffffffffffffffffffffffffffffffff16815260200190815260200160002060008481526020019081526020016000206000018190555043600560003373ffffffffffffffffffffffffffffffffffffffff1673ffffffffffffffffffffffffffffffffffffffff1681526020019081526020016000206000848152602001908152602001600020600101819055506001600560003373ffffffffffffffffffffffffffffffffffffffff1673ffffffffffffffffffffffffffffffffffffffff168152602001908152602001600020600084815260200190815260200160002060020160006101000a81548160ff021916908360038111156118dd57fe5b0217905550858560405180838380828437808301925050509250505060405180910390208773ffffffffffffffffffffffffffffffffffffffff167f51da50338e3dc79147d8c0ad6ef8683add8e662823fa70e49fe3b22618b8e56386863360405180806020018373ffffffffffffffffffffffffffffffffffffffff1673ffffffffffffffffffffffffffffffffffffffff1681526020018281038252858582818152602001925080828437600081840152601f19601f82011690508083019250505094505050505060405180910390a350505050505050565b6000868686604051602001808473ffffffffffffffffffffffffffffffffffffffff1673ffffffffffffffffffffffffffffffffffffffff166c010000000000000000000000000281526014018383808284378083019250505093505050506040516020818303038152906040528051906020012090506000600560003373ffffffffffffffffffffffffffffffffffffffff1673ffffffffffffffffffffffffffffffffffffffff168152602001908152602001600020600083815260200190815260200160002060000154111515611afa576040517f08c379a00000000000000000000000000000000000000000000000000000000081526004018080602001828103825260148152602001807f4e6f207374616b6520746f20776974686472617700000000000000000000000081525060200191505060405180910390fd5b8673ffffffffffffffffffffffffffffffffffffffff16611b1c8585856123f8565b73ffffffffffffffffffffffffffffffffffffffff16141515611b8a576040517f08c379a00000000000000000000000000000000000000000000000000000000081526004018080602001828103825260248152602001806127f96024913960400191505060405180910390fd5b600260019054906101000a900473ffffffffffffffffffffffffffffffffffffffff1673ffffffffffffffffffffffffffffffffffffffff1663a9059cbb33600560003373ffffffffffffffffffffffffffffffffffffffff1673ffffffffffffffffffffffffffffffffffffffff1681526020019081526020016000206000858152602001908152602001600020600001546040518363ffffffff167c0100000000000000000000000000000000000000000000000000000000028152600401808373ffffffffffffffffffffffffffffffffffffffff1673ffffffffffffffffffffffffffffffffffffffff16815260200182815260200192505050602060405180830381600087803b158015611ca257600080fd5b505af1158015611cb6573d6000803e3d6000fd5b505050506040513d6020811015611ccc57600080fd5b8101908080519060200190929190505050506000600560003373ffffffffffffffffffffffffffffffffffffffff1673ffffffffffffffffffffffffffffffffffffffff1681526020019081526020016000206000838152602001908152602001600020600001819055506002600560003373ffffffffffffffffffffffffffffffffffffffff1673ffffffffffffffffffffffffffffffffffffffff168152602001908152602001600020600083815260200190815260200160002060020160006101000a81548160ff02191690836003811115611da757fe5b02179055503373ffffffffffffffffffffffffffffffffffffffff167f0aa80cea1a285bcc05980fa06dde549895dd6ecd74b2e5236a2e994cca04b81688604051808273ffffffffffffffffffffffffffffffffffffffff1673ffffffffffffffffffffffffffffffffffffffff16815260200191505060405180910390a250505050505050565b611e3761125b565b1515611e4257600080fd5b6000838383604051602001808473ffffffffffffffffffffffffffffffffffffffff1673ffffffffffffffffffffffffffffffffffffffff166c010000000000000000000000000281526014018383808284378083019250505093505050506040516020818303038152906040528051906020012090506000600560008773ffffffffffffffffffffffffffffffffffffffff1673ffffffffffffffffffffffffffffffffffffffff168152602001908152602001600020600083815260200190815260200160002060000154111515611f84576040517f08c379a00000000000000000000000000000000000000000000000000000000081526004018080602001828103825260128152602001807f4e6f207374616b6520746f20726566756e64000000000000000000000000000081525060200191505060405180910390fd5b600260019054906101000a900473ffffffffffffffffffffffffffffffffffffffff1673ffffffffffffffffffffffffffffffffffffffff1663a9059cbb86600560008973ffffffffffffffffffffffffffffffffffffffff1673ffffffffffffffffffffffffffffffffffffffff1681526020019081526020016000206000858152602001908152602001600020600001546040518363ffffffff167c0100000000000000000000000000000000000000000000000000000000028152600401808373ffffffffffffffffffffffffffffffffffffffff1673ffffffffffffffffffffffffffffffffffffffff16815260200182815260200192505050602060405180830381600087803b15801561209c57600080fd5b505af11580156120b0573d6000803e3d6000fd5b505050506040513d60208110156120c657600080fd5b8101908080519060200190929190505050506000600560008773ffffffffffffffffffffffffffffffffffffffff1673ffffffffffffffffffffffffffffffffffffffff1681526020019081526020016000206000838152602001908152602001600020600001819055506000600560008773ffffffffffffffffffffffffffffffffffffffff1673ffffffffffffffffffffffffffffffffffffffff168152602001908152602001600020600083815260200190815260200160002060020160006101000a81548160ff021916908360038111156121a157fe5b02179055508473ffffffffffffffffffffffffffffffffffffffff167f90f08d02a7b877ebdfbdee8ca9098b8db20c39db9d3e836e92e802ac6ca3008b848460405180806020018281038252848482818152602001925080828437600081840152601f19601f820116905080830192505050935050505060405180910390a25050505050565b6005602052816000526040600020602052806000526040600020600091509150508060000154908060010154908060020160009054906101000a900460ff16905083565b61227361125b565b151561227e57600080fd5b6122878161252a565b50565b600260019054906101000a900473ffffffffffffffffffffffffffffffffffffffff1681565b60008073ffffffffffffffffffffffffffffffffffffffff168273ffffffffffffffffffffffffffffffffffffffff16141515156122ed57600080fd5b8260000160008373ffffffffffffffffffffffffffffffffffffffff1673ffffffffffffffffffffffffffffffffffffffff16815260200190815260200160002060009054906101000a900460ff16905092915050565b61235881600161262490919063ffffffff16565b8073ffffffffffffffffffffffffffffffffffffffff167fcd265ebaf09df2871cc7bd4133404a235ba12eff2041bb89d9c714a2621c7c7e60405160405180910390a250565b6123b28160016126d390919063ffffffff16565b8073ffffffffffffffffffffffffffffffffffffffff167f6719d08c1888103bea251a4ed56406bd0c3e69723c8a1686e017e7bbe159b6f860405160405180910390a250565b60008033604051602001808273ffffffffffffffffffffffffffffffffffffffff1673ffffffffffffffffffffffffffffffffffffffff166c0100000000000000000000000002815260140191505060405160208183030381529060405280519060200120905060008160405160200180807f19457468657265756d205369676e6564204d6573736167653a0a333200000000815250601c01828152602001915050604051602081830303815290604052805190602001209050600060018288888860405160008152602001604052604051808581526020018460ff1660ff1681526020018381526020018281526020019450505050506020604051602081039080840390855afa158015612511573d6000803e3d6000fd5b5050506020604051035190508093505050509392505050565b600073ffffffffffffffffffffffffffffffffffffffff168173ffffffffffffffffffffffffffffffffffffffff161415151561256657600080fd5b8073ffffffffffffffffffffffffffffffffffffffff166000809054906101000a900473ffffffffffffffffffffffffffffffffffffffff1673ffffffffffffffffffffffffffffffffffffffff167f8be0079c531659141344cd1fd0a4f28419497f9722a3daafe3b4186f6b6457e060405160405180910390a3806000806101000a81548173ffffffffffffffffffffffffffffffffffffffff021916908373ffffffffffffffffffffffffffffffffffffffff16021790555050565b600073ffffffffffffffffffffffffffffffffffffffff168173ffffffffffffffffffffffffffffffffffffffff161415151561266057600080fd5b61266a82826122b0565b151561267557600080fd5b60008260000160008373ffffffffffffffffffffffffffffffffffffffff1673ffffffffffffffffffffffffffffffffffffffff16815260200190815260200160002060006101000a81548160ff0219169083151502179055505050565b600073ffffffffffffffffffffffffffffffffffffffff168173ffffffffffffffffffffffffffffffffffffffff161415151561270f57600080fd5b61271982826122b0565b15151561272557600080fd5b60018260000160008373ffffffffffffffffffffffffffffffffffffffff1673ffffffffffffffffffffffffffffffffffffffff16815260200190815260200160002060006101000a81548160ff021916908315150217905550505056fe496e7669746520746f207468697320757365722068617320616c7265616479206265656e206163636570746564496e7669746520746f2074686973207573657220686173206265656e2072656a6563746564496e7669746520746f2074686973207573657220616c72656164792070656e64696e67556e61626c6520746f2076657269667920726563697069656e74207369676e6174757265a165627a7a72305820c9be4d1e322ce6ea88c8bbca1c1d9814d8f7d5f1701ec6154a42e07a30d251070029",
  "source": "pragma solidity >=0.4.21 <0.6.0;\nimport 'openzeppelin-solidity/contracts/lifecycle/Pausable.sol';\nimport 'openzeppelin-solidity/contracts/ownership/Ownable.sol';\nimport \"openzeppelin-solidity/contracts/token/ERC20/ERC20.sol\";\n\ncontract ContactInvite is Ownable, Pausable {\n\n  ERC20 public token;\n  uint public requiredStake;\n  uint public creationBlock;\n\n  enum InviteState { NONE, PENDING, ACCEPTED, REJECTED }\n\n  struct InviteRequest {\n    uint stake;\n    uint block;\n    InviteState state;\n  }\n\n  mapping (address => mapping (bytes32 => InviteRequest)) public inviteRequests;\n\n  constructor(address _tokenAddress) public {\n    token = ERC20(_tokenAddress);\n    requiredStake = 10 ether;\n    creationBlock = block.number;\n  }\n\n  function getInviteState(\n    address senderAddr,\n    address recipientAddr,\n    string calldata recipientFeed\n  ) external view returns (bytes32) {\n    bytes32 recipientHash = keccak256(abi.encodePacked(recipientAddr, recipientFeed));\n    InviteState state = inviteRequests[senderAddr][recipientHash].state;\n    if  (state == InviteState.PENDING) {\n      return 'PENDING';\n    } else if (state == InviteState.REJECTED) {\n      return 'REJECTED';\n    } else if (state == InviteState.ACCEPTED) {\n      return 'ACCEPTED';\n    }\n    return 'NONE';\n  }\n\n  function pendingInviteStake(\n    address senderAddress,\n    address recipientAddr,\n    string calldata recipientFeed\n  ) external view returns (uint256) {\n    bytes32 recipientHash = keccak256(\n      abi.encodePacked(recipientAddr, recipientFeed)\n    );\n    return inviteRequests[senderAddress][recipientHash].stake;\n  }\n\n  function sendInvite(\n    address recipientAddr,\n    string calldata recipientFeed,\n    string calldata senderFeed\n  ) external {\n    bytes32 recipientHash = keccak256(abi.encodePacked(recipientAddr, recipientFeed));\n    InviteState state = inviteRequests[msg.sender][recipientHash].state;\n    require(token.allowance(msg.sender, address(this)) > 0, 'Insufficient balance to stake');\n    require(state != InviteState.PENDING, 'Invite to this user already pending');\n    require(state != InviteState.REJECTED, 'Invite to this user has been rejected');\n    require(state != InviteState.ACCEPTED, 'Invite to this user has already been accepted');\n    token.transferFrom(msg.sender, address(this), requiredStake);\n    inviteRequests[msg.sender][recipientHash].stake = requiredStake;\n    inviteRequests[msg.sender][recipientHash].block = block.number;\n    inviteRequests[msg.sender][recipientHash].state = InviteState.PENDING;\n    emit Invited(recipientAddr, recipientFeed, senderFeed, msg.sender);\n  }\n\n  function declineAndWithdraw(\n    address senderAddress,\n    string calldata senderFeed,\n    string calldata recipientFeed\n  ) external {\n    bytes32 recipientHash = keccak256(abi.encodePacked(msg.sender, recipientFeed));\n    require(inviteRequests[senderAddress][recipientHash].stake > 0, 'No stake to withdraw');\n    token.transfer(msg.sender, inviteRequests[senderAddress][recipientHash].stake);\n    inviteRequests[senderAddress][recipientHash].stake = 0;\n    inviteRequests[senderAddress][recipientHash].state = InviteState.REJECTED;\n    emit Declined(senderFeed, senderAddress, recipientFeed);\n  }\n\n  function retrieveStake(\n    address recipientAddr,\n    string calldata recipientFeed,\n    uint8 v,\n    bytes32 r,\n    bytes32 s\n  ) external {\n    bytes32 recipientHash = keccak256(abi.encodePacked(recipientAddr, recipientFeed));\n    require(inviteRequests[msg.sender][recipientHash].stake > 0, 'No stake to withdraw');\n    require(verifySig(v,r,s) == recipientAddr, 'Unable to verify recipient signature');\n    token.transfer(msg.sender, inviteRequests[msg.sender][recipientHash].stake);\n    inviteRequests[msg.sender][recipientHash].stake = 0;\n    inviteRequests[msg.sender][recipientHash].state = InviteState.ACCEPTED;\n    emit StakeRetrieved(msg.sender, recipientAddr);\n  }\n\n  function verifySig(uint8 v, bytes32 r, bytes32 s) internal view returns (address) {\n    bytes32 hashedAddress = keccak256(abi.encodePacked(msg.sender));\n    bytes32 messageDigest = keccak256(abi.encodePacked(\"\\x19Ethereum Signed Message:\\n32\", hashedAddress));\n    address _address = ecrecover(messageDigest, v, r, s);\n    return _address;\n  }\n\n  function adminRefund(\n    address senderAddress,\n    address recipientAddress,\n    string calldata recipientFeed\n  ) external onlyOwner {\n    bytes32 recipientHash = keccak256(abi.encodePacked(recipientAddress, recipientFeed));\n    require(inviteRequests[senderAddress][recipientHash].stake > 0, 'No stake to refund');\n    token.transfer(senderAddress, inviteRequests[senderAddress][recipientHash].stake);\n    inviteRequests[senderAddress][recipientHash].stake = 0;\n    inviteRequests[senderAddress][recipientHash].state = InviteState.NONE;\n    emit StakeRefunded(senderAddress, recipientFeed);\n  }\n\n  // EVENTS\n\n  event Invited(\n    address indexed recipientAddress,\n    string indexed recipientFeed,\n    string senderFeed,\n    address senderAddress\n  );\n  event Declined(\n    string indexed senderFeed,\n    address indexed senderAddress,\n    string recipientFeed\n  );\n  event StakeRetrieved(\n    address indexed sender,\n    address recipient\n  );\n  event StakeRefunded(\n    address indexed senderAddress,\n    string recipientFeed\n  );\n}\n",
  "sourcePath": "/Users/adamclarke/projects/js-mainframe/packages/smart-contracts/contracts/ContactInvite.sol",
  "compiler": {
    "name": "solc",
    "version": "0.5.2+commit.1df8f40c.Emscripten.clang"
  },
  "schemaVersion": "3.0.2",
  "updatedAt": "2019-04-02T12:14:58.328Z",
  "devdoc": {
    "methods": {
      "isOwner()": {
        "return": "true if `msg.sender` is the owner of the contract."
      },
      "owner()": {
        "return": "the address of the owner."
      },
      "pause()": {
        "details": "called by the owner to pause, triggers stopped state"
      },
      "paused()": {
        "return": "true if the contract is paused, false otherwise."
      },
      "renounceOwnership()": {
        "details": "Allows the current owner to relinquish control of the contract. It will not be possible to call the functions with the `onlyOwner` modifier anymore."
      },
      "transferOwnership(address)": {
        "details": "Allows the current owner to transfer control of the contract to a newOwner.",
        "params": {
          "newOwner": "The address to transfer ownership to."
        }
      },
      "unpause()": {
        "details": "called by the owner to unpause, returns to normal state"
      }
    }
  },
  "userdoc": {
    "methods": {
      "renounceOwnership()": {
        "notice": "Renouncing ownership will leave the contract without an owner, thereby removing any functionality that is only available to the owner."
      }
    }
  }
}