{
  "contractName": "ContactInvite",
  "abi": [
    {
      "constant": true,
      "inputs": [],
      "name": "creationBlock",
      "outputs": [
        {
          "name": "",
          "type": "uint256"
        }
      ],
      "payable": false,
      "stateMutability": "view",
      "type": "function"
    },
    {
      "constant": true,
      "inputs": [],
      "name": "requiredStake",
      "outputs": [
        {
          "name": "",
          "type": "uint256"
        }
      ],
      "payable": false,
      "stateMutability": "view",
      "type": "function"
    },
    {
      "constant": false,
      "inputs": [],
      "name": "unpause",
      "outputs": [],
      "payable": false,
      "stateMutability": "nonpayable",
      "type": "function"
    },
    {
      "constant": true,
      "inputs": [
        {
          "name": "account",
          "type": "address"
        }
      ],
      "name": "isPauser",
      "outputs": [
        {
          "name": "",
          "type": "bool"
        }
      ],
      "payable": false,
      "stateMutability": "view",
      "type": "function"
    },
    {
      "constant": true,
      "inputs": [],
      "name": "paused",
      "outputs": [
        {
          "name": "",
          "type": "bool"
        }
      ],
      "payable": false,
      "stateMutability": "view",
      "type": "function"
    },
    {
      "constant": false,
      "inputs": [],
      "name": "renouncePauser",
      "outputs": [],
      "payable": false,
      "stateMutability": "nonpayable",
      "type": "function"
    },
    {
      "constant": false,
      "inputs": [],
      "name": "renounceOwnership",
      "outputs": [],
      "payable": false,
      "stateMutability": "nonpayable",
      "type": "function"
    },
    {
      "constant": false,
      "inputs": [
        {
          "name": "account",
          "type": "address"
        }
      ],
      "name": "addPauser",
      "outputs": [],
      "payable": false,
      "stateMutability": "nonpayable",
      "type": "function"
    },
    {
      "constant": false,
      "inputs": [],
      "name": "pause",
      "outputs": [],
      "payable": false,
      "stateMutability": "nonpayable",
      "type": "function"
    },
    {
      "constant": true,
      "inputs": [],
      "name": "owner",
      "outputs": [
        {
          "name": "",
          "type": "address"
        }
      ],
      "payable": false,
      "stateMutability": "view",
      "type": "function"
    },
    {
      "constant": true,
      "inputs": [],
      "name": "isOwner",
      "outputs": [
        {
          "name": "",
          "type": "bool"
        }
      ],
      "payable": false,
      "stateMutability": "view",
      "type": "function"
    },
    {
      "constant": true,
      "inputs": [
        {
          "name": "",
          "type": "address"
        },
        {
          "name": "",
          "type": "bytes32"
        }
      ],
      "name": "inviteRequests",
      "outputs": [
        {
          "name": "stake",
          "type": "uint256"
        },
        {
          "name": "block",
          "type": "uint256"
        },
        {
          "name": "state",
          "type": "uint8"
        }
      ],
      "payable": false,
      "stateMutability": "view",
      "type": "function"
    },
    {
      "constant": false,
      "inputs": [
        {
          "name": "newOwner",
          "type": "address"
        }
      ],
      "name": "transferOwnership",
      "outputs": [],
      "payable": false,
      "stateMutability": "nonpayable",
      "type": "function"
    },
    {
      "constant": true,
      "inputs": [],
      "name": "token",
      "outputs": [
        {
          "name": "",
          "type": "address"
        }
      ],
      "payable": false,
      "stateMutability": "view",
      "type": "function"
    },
    {
      "inputs": [
        {
          "name": "_tokenAddress",
          "type": "address"
        }
      ],
      "payable": false,
      "stateMutability": "nonpayable",
      "type": "constructor"
    },
    {
      "anonymous": false,
      "inputs": [
        {
          "indexed": true,
          "name": "recipientAddress",
          "type": "address"
        },
        {
          "indexed": true,
          "name": "recipientFeed",
          "type": "string"
        },
        {
          "indexed": false,
          "name": "senderFeed",
          "type": "string"
        },
        {
          "indexed": false,
          "name": "senderAddress",
          "type": "address"
        }
      ],
      "name": "Invited",
      "type": "event"
    },
    {
      "anonymous": false,
      "inputs": [
        {
          "indexed": true,
          "name": "senderFeed",
          "type": "string"
        },
        {
          "indexed": true,
          "name": "senderAddress",
          "type": "address"
        },
        {
          "indexed": false,
          "name": "recipientFeed",
          "type": "string"
        }
      ],
      "name": "Declined",
      "type": "event"
    },
    {
      "anonymous": false,
      "inputs": [
        {
          "indexed": true,
          "name": "sender",
          "type": "address"
        },
        {
          "indexed": false,
          "name": "recipient",
          "type": "address"
        }
      ],
      "name": "StakeRetrieved",
      "type": "event"
    },
    {
      "anonymous": false,
      "inputs": [
        {
          "indexed": false,
          "name": "hash",
          "type": "bytes32"
        }
      ],
      "name": "Hashed",
      "type": "event"
    },
    {
      "anonymous": false,
      "inputs": [
        {
          "indexed": false,
          "name": "_address",
          "type": "address"
        }
      ],
      "name": "Address",
      "type": "event"
    },
    {
      "anonymous": false,
      "inputs": [
        {
          "indexed": false,
          "name": "message",
          "type": "bytes"
        }
      ],
      "name": "MessageBytes",
      "type": "event"
    },
    {
      "anonymous": false,
      "inputs": [
        {
          "indexed": false,
          "name": "message",
          "type": "string"
        }
      ],
      "name": "MessageString",
      "type": "event"
    },
    {
      "anonymous": false,
      "inputs": [
        {
          "indexed": false,
          "name": "check",
          "type": "bool"
        }
      ],
      "name": "IsTrue",
      "type": "event"
    },
    {
      "anonymous": false,
      "inputs": [
        {
          "indexed": false,
          "name": "value",
          "type": "bytes1"
        }
      ],
      "name": "Parsed",
      "type": "event"
    },
    {
      "anonymous": false,
      "inputs": [
        {
          "indexed": false,
          "name": "account",
          "type": "address"
        }
      ],
      "name": "Paused",
      "type": "event"
    },
    {
      "anonymous": false,
      "inputs": [
        {
          "indexed": false,
          "name": "account",
          "type": "address"
        }
      ],
      "name": "Unpaused",
      "type": "event"
    },
    {
      "anonymous": false,
      "inputs": [
        {
          "indexed": true,
          "name": "account",
          "type": "address"
        }
      ],
      "name": "PauserAdded",
      "type": "event"
    },
    {
      "anonymous": false,
      "inputs": [
        {
          "indexed": true,
          "name": "account",
          "type": "address"
        }
      ],
      "name": "PauserRemoved",
      "type": "event"
    },
    {
      "anonymous": false,
      "inputs": [
        {
          "indexed": true,
          "name": "previousOwner",
          "type": "address"
        },
        {
          "indexed": true,
          "name": "newOwner",
          "type": "address"
        }
      ],
      "name": "OwnershipTransferred",
      "type": "event"
    },
    {
      "constant": true,
      "inputs": [
        {
          "name": "senderAddr",
          "type": "address"
        },
        {
          "name": "recipientAddr",
          "type": "address"
        },
        {
          "name": "recipientFeed",
          "type": "string"
        }
      ],
      "name": "getInviteState",
      "outputs": [
        {
          "name": "",
          "type": "bytes32"
        }
      ],
      "payable": false,
      "stateMutability": "view",
      "type": "function"
    },
    {
      "constant": true,
      "inputs": [
        {
          "name": "recipientAddr",
          "type": "address"
        },
        {
          "name": "recipientFeed",
          "type": "string"
        }
      ],
      "name": "pendingInviteStake",
      "outputs": [
        {
          "name": "",
          "type": "uint256"
        }
      ],
      "payable": false,
      "stateMutability": "view",
      "type": "function"
    },
    {
      "constant": false,
      "inputs": [
        {
          "name": "recipientAddr",
          "type": "address"
        },
        {
          "name": "recipientFeed",
          "type": "string"
        },
        {
          "name": "senderFeed",
          "type": "string"
        }
      ],
      "name": "sendInvite",
      "outputs": [],
      "payable": false,
      "stateMutability": "nonpayable",
      "type": "function"
    },
    {
      "constant": false,
      "inputs": [
        {
          "name": "senderAddress",
          "type": "address"
        },
        {
          "name": "senderFeed",
          "type": "string"
        },
        {
          "name": "recipientFeed",
          "type": "string"
        }
      ],
      "name": "declineAndWithdraw",
      "outputs": [],
      "payable": false,
      "stateMutability": "nonpayable",
      "type": "function"
    },
    {
      "constant": false,
      "inputs": [
        {
          "name": "recipientAddr",
          "type": "address"
        },
        {
          "name": "recipientFeed",
          "type": "string"
        },
        {
          "name": "v",
          "type": "uint8"
        },
        {
          "name": "r",
          "type": "bytes32"
        },
        {
          "name": "s",
          "type": "bytes32"
        }
      ],
      "name": "retrieveStake",
      "outputs": [],
      "payable": false,
      "stateMutability": "nonpayable",
      "type": "function"
    }
  ],
  "bytecode": "0x60806040523480156200001157600080fd5b506040516020806200271e833981018060405260208110156200003357600080fd5b8101908080519060200190929190505050336000806101000a81548173ffffffffffffffffffffffffffffffffffffffff021916908373ffffffffffffffffffffffffffffffffffffffff1602179055506000809054906101000a900473ffffffffffffffffffffffffffffffffffffffff1673ffffffffffffffffffffffffffffffffffffffff16600073ffffffffffffffffffffffffffffffffffffffff167f8be0079c531659141344cd1fd0a4f28419497f9722a3daafe3b4186f6b6457e060405160405180910390a36200011a3362000193640100000000026401000000009004565b6000600260006101000a81548160ff02191690831515021790555080600260016101000a81548173ffffffffffffffffffffffffffffffffffffffff021916908373ffffffffffffffffffffffffffffffffffffffff160217905550678ac7230489e80000600381905550436004819055505062000355565b620001b7816001620001fd64010000000002620022dd179091906401000000009004565b8073ffffffffffffffffffffffffffffffffffffffff167f6719d08c1888103bea251a4ed56406bd0c3e69723c8a1686e017e7bbe159b6f860405160405180910390a250565b600073ffffffffffffffffffffffffffffffffffffffff168173ffffffffffffffffffffffffffffffffffffffff16141515156200023a57600080fd5b620002558282620002c0640100000000026401000000009004565b1515156200026257600080fd5b60018260000160008373ffffffffffffffffffffffffffffffffffffffff1673ffffffffffffffffffffffffffffffffffffffff16815260200190815260200160002060006101000a81548160ff0219169083151502179055505050565b60008073ffffffffffffffffffffffffffffffffffffffff168273ffffffffffffffffffffffffffffffffffffffff1614151515620002fe57600080fd5b8260000160008373ffffffffffffffffffffffffffffffffffffffff1673ffffffffffffffffffffffffffffffffffffffff16815260200190815260200160002060009054906101000a900460ff16905092915050565b6123b980620003656000396000f3fe608060405260043610610107576000357c0100000000000000000000000000000000000000000000000000000000900463ffffffff168063176345141461010c57806319cb355d146101375780633f4ba83a1461016257806346fbf68e14610179578063479669ee146101e25780635c975abb146102dd5780636ef8d66d1461030c578063715018a61461032357806377b74c431461033a57806382dc1ec4146104145780638456cb59146104655780638da5cb5b1461047c5780638f32d59b146104d3578063938cea9414610502578063b3f7c403146105fd578063b8df9b42146106c4578063ca47d3891461077e578063f2fde38b14610809578063fc0c546a1461085a575b600080fd5b34801561011857600080fd5b506101216108b1565b6040518082815260200191505060405180910390f35b34801561014357600080fd5b5061014c6108b7565b6040518082815260200191505060405180910390f35b34801561016e57600080fd5b506101776108bd565b005b34801561018557600080fd5b506101c86004803603602081101561019c57600080fd5b81019080803573ffffffffffffffffffffffffffffffffffffffff16906020019092919050505061096c565b604051808215151515815260200191505060405180910390f35b3480156101ee57600080fd5b506102db6004803603606081101561020557600080fd5b81019080803573ffffffffffffffffffffffffffffffffffffffff1690602001909291908035906020019064010000000081111561024257600080fd5b82018360208201111561025457600080fd5b8035906020019184600183028401116401000000008311171561027657600080fd5b90919293919293908035906020019064010000000081111561029757600080fd5b8201836020820111156102a957600080fd5b803590602001918460018302840111640100000000831117156102cb57600080fd5b9091929391929390505050610989565b005b3480156102e957600080fd5b506102f2610d8e565b604051808215151515815260200191505060405180910390f35b34801561031857600080fd5b50610321610da5565b005b34801561032f57600080fd5b50610338610db0565b005b34801561034657600080fd5b506103fe6004803603606081101561035d57600080fd5b81019080803573ffffffffffffffffffffffffffffffffffffffff169060200190929190803573ffffffffffffffffffffffffffffffffffffffff169060200190929190803590602001906401000000008111156103ba57600080fd5b8201836020820111156103cc57600080fd5b803590602001918460018302840111640100000000831117156103ee57600080fd5b9091929391929390505050610e82565b6040518082815260200191505060405180910390f35b34801561042057600080fd5b506104636004803603602081101561043757600080fd5b81019080803573ffffffffffffffffffffffffffffffffffffffff169060200190929190505050611044565b005b34801561047157600080fd5b5061047a611064565b005b34801561048857600080fd5b50610491611114565b604051808273ffffffffffffffffffffffffffffffffffffffff1673ffffffffffffffffffffffffffffffffffffffff16815260200191505060405180910390f35b3480156104df57600080fd5b506104e861113d565b604051808215151515815260200191505060405180910390f35b34801561050e57600080fd5b506105fb6004803603606081101561052557600080fd5b81019080803573ffffffffffffffffffffffffffffffffffffffff1690602001909291908035906020019064010000000081111561056257600080fd5b82018360208201111561057457600080fd5b8035906020019184600183028401116401000000008311171561059657600080fd5b9091929391929390803590602001906401000000008111156105b757600080fd5b8201836020820111156105c957600080fd5b803590602001918460018302840111640100000000831117156105eb57600080fd5b9091929391929390505050611194565b005b34801561060957600080fd5b506106c2600480360360a081101561062057600080fd5b81019080803573ffffffffffffffffffffffffffffffffffffffff1690602001909291908035906020019064010000000081111561065d57600080fd5b82018360208201111561066f57600080fd5b8035906020019184600183028401116401000000008311171561069157600080fd5b9091929391929390803560ff1690602001909291908035906020019092919080359060200190929190505050611807565b005b3480156106d057600080fd5b50610768600480360360408110156106e757600080fd5b81019080803573ffffffffffffffffffffffffffffffffffffffff1690602001909291908035906020019064010000000081111561072457600080fd5b82018360208201111561073657600080fd5b8035906020019184600183028401116401000000008311171561075857600080fd5b9091929391929390505050611cc1565b6040518082815260200191505060405180910390f35b34801561078a57600080fd5b506107d7600480360360408110156107a157600080fd5b81019080803573ffffffffffffffffffffffffffffffffffffffff16906020019092919080359060200190929190505050611d97565b604051808481526020018381526020018260028111156107f357fe5b60ff168152602001935050505060405180910390f35b34801561081557600080fd5b506108586004803603602081101561082c57600080fd5b81019080803573ffffffffffffffffffffffffffffffffffffffff169060200190929190505050611ddb565b005b34801561086657600080fd5b5061086f611dfa565b604051808273ffffffffffffffffffffffffffffffffffffffff1673ffffffffffffffffffffffffffffffffffffffff16815260200191505060405180910390f35b60045481565b60035481565b6108c63361096c565b15156108d157600080fd5b600260009054906101000a900460ff1615156108ec57600080fd5b6000600260006101000a81548160ff0219169083151502179055507f5db9ee0a495bf2e6ff9c91a7834c1ba4fdd244a5e8aa4e537bd38aeae4b073aa33604051808273ffffffffffffffffffffffffffffffffffffffff1673ffffffffffffffffffffffffffffffffffffffff16815260200191505060405180910390a1565b6000610982826001611e2090919063ffffffff16565b9050919050565b6000338383604051602001808473ffffffffffffffffffffffffffffffffffffffff1673ffffffffffffffffffffffffffffffffffffffff166c010000000000000000000000000281526014018383808284378083019250505093505050506040516020818303038152906040528051906020012090506000600560008873ffffffffffffffffffffffffffffffffffffffff1673ffffffffffffffffffffffffffffffffffffffff168152602001908152602001600020600083815260200190815260200160002060000154111515610acb576040517f08c379a00000000000000000000000000000000000000000000000000000000081526004018080602001828103825260148152602001807f4e6f207374616b6520746f20776974686472617700000000000000000000000081525060200191505060405180910390fd5b600260019054906101000a900473ffffffffffffffffffffffffffffffffffffffff1673ffffffffffffffffffffffffffffffffffffffff1663a9059cbb33600560008a73ffffffffffffffffffffffffffffffffffffffff1673ffffffffffffffffffffffffffffffffffffffff1681526020019081526020016000206000858152602001908152602001600020600001546040518363ffffffff167c0100000000000000000000000000000000000000000000000000000000028152600401808373ffffffffffffffffffffffffffffffffffffffff1673ffffffffffffffffffffffffffffffffffffffff16815260200182815260200192505050602060405180830381600087803b158015610be357600080fd5b505af1158015610bf7573d6000803e3d6000fd5b505050506040513d6020811015610c0d57600080fd5b8101908080519060200190929190505050506000600560008873ffffffffffffffffffffffffffffffffffffffff1673ffffffffffffffffffffffffffffffffffffffff1681526020019081526020016000206000838152602001908152602001600020600001819055506002600560008873ffffffffffffffffffffffffffffffffffffffff1673ffffffffffffffffffffffffffffffffffffffff168152602001908152602001600020600083815260200190815260200160002060020160006101000a81548160ff02191690836002811115610ce857fe5b02179055508573ffffffffffffffffffffffffffffffffffffffff16858560405180838380828437808301925050509250505060405180910390207f36e8947c89184c6ccbe5fd0302db37bba45bfbe018c1882b1e32c4f46941138e858560405180806020018281038252848482818152602001925080828437600081840152601f19601f820116905080830192505050935050505060405180910390a3505050505050565b6000600260009054906101000a900460ff16905090565b610dae33611eb4565b565b610db861113d565b1515610dc357600080fd5b600073ffffffffffffffffffffffffffffffffffffffff166000809054906101000a900473ffffffffffffffffffffffffffffffffffffffff1673ffffffffffffffffffffffffffffffffffffffff167f8be0079c531659141344cd1fd0a4f28419497f9722a3daafe3b4186f6b6457e060405160405180910390a360008060006101000a81548173ffffffffffffffffffffffffffffffffffffffff021916908373ffffffffffffffffffffffffffffffffffffffff160217905550565b600080848484604051602001808473ffffffffffffffffffffffffffffffffffffffff1673ffffffffffffffffffffffffffffffffffffffff166c010000000000000000000000000281526014018383808284378083019250505093505050506040516020818303038152906040528051906020012090506000600560008873ffffffffffffffffffffffffffffffffffffffff1673ffffffffffffffffffffffffffffffffffffffff168152602001908152602001600020600083815260200190815260200160002060020160009054906101000a900460ff16905060006002811115610f6c57fe5b816002811115610f7857fe5b1415610fa8577f50454e44494e47000000000000000000000000000000000000000000000000009250505061103c565b600280811115610fb457fe5b816002811115610fc057fe5b1415610ff0577f52454a45435445440000000000000000000000000000000000000000000000009250505061103c565b60016002811115610ffd57fe5b81600281111561100957fe5b1415611039577f41434345505445440000000000000000000000000000000000000000000000009250505061103c565b50505b949350505050565b61104d3361096c565b151561105857600080fd5b61106181611f0e565b50565b61106d3361096c565b151561107857600080fd5b600260009054906101000a900460ff1615151561109457600080fd5b6001600260006101000a81548160ff0219169083151502179055507f62e78cea01bee320cd4e420270b5ea74000d11b0c9f74754ebdbfc544b05a25833604051808273ffffffffffffffffffffffffffffffffffffffff1673ffffffffffffffffffffffffffffffffffffffff16815260200191505060405180910390a1565b60008060009054906101000a900473ffffffffffffffffffffffffffffffffffffffff16905090565b60008060009054906101000a900473ffffffffffffffffffffffffffffffffffffffff1673ffffffffffffffffffffffffffffffffffffffff163373ffffffffffffffffffffffffffffffffffffffff1614905090565b6000858585604051602001808473ffffffffffffffffffffffffffffffffffffffff1673ffffffffffffffffffffffffffffffffffffffff166c010000000000000000000000000281526014018383808284378083019250505093505050506040516020818303038152906040528051906020012090506000600260019054906101000a900473ffffffffffffffffffffffffffffffffffffffff1673ffffffffffffffffffffffffffffffffffffffff1663dd62ed3e33306040518363ffffffff167c0100000000000000000000000000000000000000000000000000000000028152600401808373ffffffffffffffffffffffffffffffffffffffff1673ffffffffffffffffffffffffffffffffffffffff1681526020018273ffffffffffffffffffffffffffffffffffffffff1673ffffffffffffffffffffffffffffffffffffffff1681526020019250505060206040518083038186803b1580156112fc57600080fd5b505afa158015611310573d6000803e3d6000fd5b505050506040513d602081101561132657600080fd5b81019080805190602001909291905050501115156113ac576040517f08c379a000000000000000000000000000000000000000000000000000000000815260040180806020018281038252601d8152602001807f496e73756666696369656e742062616c616e636520746f207374616b6500000081525060200191505060405180910390fd5b6000600560003373ffffffffffffffffffffffffffffffffffffffff1673ffffffffffffffffffffffffffffffffffffffff16815260200190815260200160002060008381526020019081526020016000206000015414151561149d576040517f08c379a00000000000000000000000000000000000000000000000000000000081526004018080602001828103825260228152602001807f496e7669746520746f2074686973207573657220616c7265616479206578697381526020017f747300000000000000000000000000000000000000000000000000000000000081525060400191505060405180910390fd5b600260019054906101000a900473ffffffffffffffffffffffffffffffffffffffff1673ffffffffffffffffffffffffffffffffffffffff166323b872dd33306003546040518463ffffffff167c0100000000000000000000000000000000000000000000000000000000028152600401808473ffffffffffffffffffffffffffffffffffffffff1673ffffffffffffffffffffffffffffffffffffffff1681526020018373ffffffffffffffffffffffffffffffffffffffff1673ffffffffffffffffffffffffffffffffffffffff1681526020018281526020019350505050602060405180830381600087803b15801561159857600080fd5b505af11580156115ac573d6000803e3d6000fd5b505050506040513d60208110156115c257600080fd5b8101908080519060200190929190505050507f2d3a7f4267f4c2aeefe8806fd51e14a3d8154d64d231067e22e1ad59ccf53a00816040518082815260200191505060405180910390a1600354600560003373ffffffffffffffffffffffffffffffffffffffff1673ffffffffffffffffffffffffffffffffffffffff16815260200190815260200160002060008381526020019081526020016000206000018190555043600560003373ffffffffffffffffffffffffffffffffffffffff1673ffffffffffffffffffffffffffffffffffffffff1681526020019081526020016000206000838152602001908152602001600020600101819055506000600560003373ffffffffffffffffffffffffffffffffffffffff1673ffffffffffffffffffffffffffffffffffffffff168152602001908152602001600020600083815260200190815260200160002060020160006101000a81548160ff0219169083600281111561172d57fe5b0217905550848460405180838380828437808301925050509250505060405180910390208673ffffffffffffffffffffffffffffffffffffffff167f51da50338e3dc79147d8c0ad6ef8683add8e662823fa70e49fe3b22618b8e56385853360405180806020018373ffffffffffffffffffffffffffffffffffffffff1673ffffffffffffffffffffffffffffffffffffffff1681526020018281038252858582818152602001925080828437600081840152601f19601f82011690508083019250505094505050505060405180910390a3505050505050565b6000868686604051602001808473ffffffffffffffffffffffffffffffffffffffff1673ffffffffffffffffffffffffffffffffffffffff166c010000000000000000000000000281526014018383808284378083019250505093505050506040516020818303038152906040528051906020012090506000600560003373ffffffffffffffffffffffffffffffffffffffff1673ffffffffffffffffffffffffffffffffffffffff168152602001908152602001600020600083815260200190815260200160002060000154111515611949576040517f08c379a00000000000000000000000000000000000000000000000000000000081526004018080602001828103825260148152602001807f4e6f207374616b6520746f20776974686472617700000000000000000000000081525060200191505060405180910390fd5b8673ffffffffffffffffffffffffffffffffffffffff1661196b858585611f68565b73ffffffffffffffffffffffffffffffffffffffff16141515611a1c576040517f08c379a00000000000000000000000000000000000000000000000000000000081526004018080602001828103825260248152602001807f556e61626c6520746f2076657269667920726563697069656e74207369676e6181526020017f747572650000000000000000000000000000000000000000000000000000000081525060400191505060405180910390fd5b600260019054906101000a900473ffffffffffffffffffffffffffffffffffffffff1673ffffffffffffffffffffffffffffffffffffffff1663a9059cbb33600560003373ffffffffffffffffffffffffffffffffffffffff1673ffffffffffffffffffffffffffffffffffffffff1681526020019081526020016000206000858152602001908152602001600020600001546040518363ffffffff167c0100000000000000000000000000000000000000000000000000000000028152600401808373ffffffffffffffffffffffffffffffffffffffff1673ffffffffffffffffffffffffffffffffffffffff16815260200182815260200192505050602060405180830381600087803b158015611b3457600080fd5b505af1158015611b48573d6000803e3d6000fd5b505050506040513d6020811015611b5e57600080fd5b8101908080519060200190929190505050506000600560003373ffffffffffffffffffffffffffffffffffffffff1673ffffffffffffffffffffffffffffffffffffffff1681526020019081526020016000206000838152602001908152602001600020600001819055506001600560003373ffffffffffffffffffffffffffffffffffffffff1673ffffffffffffffffffffffffffffffffffffffff168152602001908152602001600020600083815260200190815260200160002060020160006101000a81548160ff02191690836002811115611c3957fe5b02179055503373ffffffffffffffffffffffffffffffffffffffff167f0aa80cea1a285bcc05980fa06dde549895dd6ecd74b2e5236a2e994cca04b81688604051808273ffffffffffffffffffffffffffffffffffffffff1673ffffffffffffffffffffffffffffffffffffffff16815260200191505060405180910390a250505050505050565b600080848484604051602001808473ffffffffffffffffffffffffffffffffffffffff1673ffffffffffffffffffffffffffffffffffffffff166c01000000000000000000000000028152601401838380828437808301925050509350505050604051602081830303815290604052805190602001209050600560003373ffffffffffffffffffffffffffffffffffffffff1673ffffffffffffffffffffffffffffffffffffffff1681526020019081526020016000206000828152602001908152602001600020600001549150509392505050565b6005602052816000526040600020602052806000526040600020600091509150508060000154908060010154908060020160009054906101000a900460ff16905083565b611de361113d565b1515611dee57600080fd5b611df781612134565b50565b600260019054906101000a900473ffffffffffffffffffffffffffffffffffffffff1681565b60008073ffffffffffffffffffffffffffffffffffffffff168273ffffffffffffffffffffffffffffffffffffffff1614151515611e5d57600080fd5b8260000160008373ffffffffffffffffffffffffffffffffffffffff1673ffffffffffffffffffffffffffffffffffffffff16815260200190815260200160002060009054906101000a900460ff16905092915050565b611ec881600161222e90919063ffffffff16565b8073ffffffffffffffffffffffffffffffffffffffff167fcd265ebaf09df2871cc7bd4133404a235ba12eff2041bb89d9c714a2621c7c7e60405160405180910390a250565b611f228160016122dd90919063ffffffff16565b8073ffffffffffffffffffffffffffffffffffffffff167f6719d08c1888103bea251a4ed56406bd0c3e69723c8a1686e017e7bbe159b6f860405160405180910390a250565b60008033604051602001808273ffffffffffffffffffffffffffffffffffffffff1673ffffffffffffffffffffffffffffffffffffffff166c0100000000000000000000000002815260140191505060405160208183030381529060405280519060200120905060008160405160200180807f19457468657265756d205369676e6564204d6573736167653a0a333200000000815250601c018281526020019150506040516020818303038152906040528051906020012090507f2d3a7f4267f4c2aeefe8806fd51e14a3d8154d64d231067e22e1ad59ccf53a00826040518082815260200191505060405180910390a1600060018288888860405160008152602001604052604051808581526020018460ff1660ff1681526020018381526020018281526020019450505050506020604051602081039080840390855afa1580156120b8573d6000803e3d6000fd5b5050506020604051035190507febfb412ded3f9cdb15b75308503b279416e74d382f6ce86eedee0ef3130fa9e381604051808273ffffffffffffffffffffffffffffffffffffffff1673ffffffffffffffffffffffffffffffffffffffff16815260200191505060405180910390a18093505050509392505050565b600073ffffffffffffffffffffffffffffffffffffffff168173ffffffffffffffffffffffffffffffffffffffff161415151561217057600080fd5b8073ffffffffffffffffffffffffffffffffffffffff166000809054906101000a900473ffffffffffffffffffffffffffffffffffffffff1673ffffffffffffffffffffffffffffffffffffffff167f8be0079c531659141344cd1fd0a4f28419497f9722a3daafe3b4186f6b6457e060405160405180910390a3806000806101000a81548173ffffffffffffffffffffffffffffffffffffffff021916908373ffffffffffffffffffffffffffffffffffffffff16021790555050565b600073ffffffffffffffffffffffffffffffffffffffff168173ffffffffffffffffffffffffffffffffffffffff161415151561226a57600080fd5b6122748282611e20565b151561227f57600080fd5b60008260000160008373ffffffffffffffffffffffffffffffffffffffff1673ffffffffffffffffffffffffffffffffffffffff16815260200190815260200160002060006101000a81548160ff0219169083151502179055505050565b600073ffffffffffffffffffffffffffffffffffffffff168173ffffffffffffffffffffffffffffffffffffffff161415151561231957600080fd5b6123238282611e20565b15151561232f57600080fd5b60018260000160008373ffffffffffffffffffffffffffffffffffffffff1673ffffffffffffffffffffffffffffffffffffffff16815260200190815260200160002060006101000a81548160ff021916908315150217905550505056fea165627a7a7230582053adf880a365ed56e0e3b67683dc0630bdc5cec8426aec165a1f1ae137b114fb0029",
  "source": "pragma solidity >=0.4.21 <0.6.0;\nimport 'openzeppelin-solidity/contracts/lifecycle/Pausable.sol';\nimport 'openzeppelin-solidity/contracts/ownership/Ownable.sol';\nimport \"openzeppelin-solidity/contracts/token/ERC20/ERC20.sol\";\n\ncontract ContactInvite is Ownable, Pausable {\n\n  ERC20 public token;\n  uint public requiredStake;\n  uint public creationBlock;\n\n  enum InviteState { PENDING, ACCEPTED, REJECTED }\n\n  struct InviteRequest {\n    uint stake;\n    uint block;\n    InviteState state;\n  }\n\n  // Stores the state of users available\n  // to contact and their required stake\n  // mapping (address => uint256) public registeredUsers;\n  mapping (address => mapping (bytes32 => InviteRequest)) public inviteRequests;\n\n  struct Staker {\n    uint256 stakedAmount;\n    address stakerAddress;\n  }\n\n  constructor(address _tokenAddress) public {\n    token = ERC20(_tokenAddress);\n    requiredStake = 10 ether;\n    creationBlock = block.number;\n  }\n\n  // function register(uint _stake) external {\n  //   require(_stake > 0, \"Stake should be larger than 0\");\n  //   registeredUsers[msg.sender] = _stake;\n  // }\n\n  // function getRequiredStake(address _address) external view returns (uint256) {\n  //   return registeredUsers[_address];\n  // }\n\n  // function requiredStake() external view returns (uint) {\n  //   return requiredStake;\n  // }\n\n  function getInviteState(\n    address senderAddr,\n    address recipientAddr,\n    string calldata recipientFeed\n  ) external view returns (bytes32) {\n    bytes32 recipientHash = keccak256(abi.encodePacked(recipientAddr, recipientFeed));\n    InviteState state = inviteRequests[senderAddr][recipientHash].state;\n    if  (state == InviteState.PENDING) {\n      return 'PENDING';\n    } else if (state == InviteState.REJECTED) {\n      return 'REJECTED';\n    } else if (state == InviteState.ACCEPTED) {\n      return 'ACCEPTED';\n    }\n  }\n\n  function pendingInviteStake(\n    address recipientAddr,\n    string calldata recipientFeed\n  ) external view returns (uint256) {\n    bytes32 recipientHash = keccak256(\n      abi.encodePacked(recipientAddr, recipientFeed)\n    );\n    return inviteRequests[msg.sender][recipientHash].stake;\n  }\n\n  function sendInvite(\n    address recipientAddr,\n    string calldata recipientFeed,\n    string calldata senderFeed\n  ) external {\n    bytes32 recipientHash = keccak256(abi.encodePacked(recipientAddr, recipientFeed));\n    require(token.allowance(msg.sender, address(this)) > 0, 'Insufficient balance to stake');\n    require(inviteRequests[msg.sender][recipientHash].stake == 0, 'Invite to this user already exists');\n    token.transferFrom(msg.sender, address(this), requiredStake);\n    emit Hashed(recipientHash);\n    inviteRequests[msg.sender][recipientHash].stake = requiredStake;\n    inviteRequests[msg.sender][recipientHash].block = block.number;\n    inviteRequests[msg.sender][recipientHash].state = InviteState.PENDING;\n    emit Invited(recipientAddr, recipientFeed, senderFeed, msg.sender);\n  }\n\n  function declineAndWithdraw(\n    address senderAddress,\n    string calldata senderFeed,\n    string calldata recipientFeed\n  ) external {\n    bytes32 recipientHash = keccak256(abi.encodePacked(msg.sender, recipientFeed));\n    require(inviteRequests[senderAddress][recipientHash].stake > 0, 'No stake to withdraw');\n    token.transfer(msg.sender, inviteRequests[senderAddress][recipientHash].stake);\n    inviteRequests[senderAddress][recipientHash].stake = 0;\n    inviteRequests[senderAddress][recipientHash].state = InviteState.REJECTED;\n    emit Declined(senderFeed, senderAddress, recipientFeed);\n  }\n\n  function retrieveStake(\n    address recipientAddr,\n    string calldata recipientFeed,\n    uint8 v,\n    bytes32 r,\n    bytes32 s\n  ) external {\n    bytes32 recipientHash = keccak256(abi.encodePacked(recipientAddr, recipientFeed));\n    require(inviteRequests[msg.sender][recipientHash].stake > 0, 'No stake to withdraw');\n    require(verifySig(v,r,s) == recipientAddr, 'Unable to verify recipient signature'); // Verified recipient signed\n    token.transfer(msg.sender, inviteRequests[msg.sender][recipientHash].stake);\n    inviteRequests[msg.sender][recipientHash].stake = 0;\n    inviteRequests[msg.sender][recipientHash].state = InviteState.ACCEPTED;\n    emit StakeRetrieved(msg.sender, recipientAddr);\n  }\n\n  function verifySig(uint8 v, bytes32 r, bytes32 s) internal returns (address) {\n    bytes32 hashedAddress = keccak256(abi.encodePacked(msg.sender));\n    bytes32 messageDigest = keccak256(abi.encodePacked(\"\\x19Ethereum Signed Message:\\n32\", hashedAddress));\n    emit Hashed(hashedAddress);\n    address _address = ecrecover(messageDigest, v, r, s);\n    emit Address(_address);\n    return _address;\n  }\n\n\n  event Invited(address indexed recipientAddress, string indexed recipientFeed, string senderFeed, address senderAddress);\n  event Declined(string indexed senderFeed, address indexed senderAddress, string recipientFeed);\n  event StakeRetrieved(address indexed sender, address recipient);\n  event Hashed(bytes32 hash);\n  event Address(address _address);\n  event MessageBytes(bytes message);\n  event MessageString(string message);\n  event IsTrue(bool check);\n\n  event Parsed(bytes1 value);\n\n}\n",
  "sourcePath": "/Users/adamclarke/projects/onchain-invites/contracts/ContactInvite.sol",
  "compiler": {
    "name": "solc",
    "version": "0.5.0+commit.1d4f565a.Emscripten.clang"
  },
  "schemaVersion": "3.0.2",
  "updatedAt": "2019-04-01T15:30:43.027Z",
  "devdoc": {
    "methods": {
      "isOwner()": {
        "return": "true if `msg.sender` is the owner of the contract."
      },
      "owner()": {
        "return": "the address of the owner."
      },
      "pause()": {
        "details": "called by the owner to pause, triggers stopped state"
      },
      "paused()": {
        "return": "true if the contract is paused, false otherwise."
      },
      "renounceOwnership()": {
        "details": "Allows the current owner to relinquish control of the contract."
      },
      "transferOwnership(address)": {
        "details": "Allows the current owner to transfer control of the contract to a newOwner.",
        "params": {
          "newOwner": "The address to transfer ownership to."
        }
      },
      "unpause()": {
        "details": "called by the owner to unpause, returns to normal state"
      }
    }
  },
  "userdoc": {
    "methods": {
      "renounceOwnership()": {
        "notice": "Renouncing to ownership will leave the contract without an owner. It will not be possible to call the functions with the `onlyOwner` modifier anymore."
      }
    }
  }
}